S01400006D746B335F6578616D706C652E7372656346
S31502000000A8310022C106000299050002BD060002BF
S31502000010BD060002BD060002BD060002BD060002C4
S31502000020000000000000000000000000BD06000203
S31502000030BD06000200000000BD060002BD06000269
S315020000400348044B834202D0034B03B1184770475F
S31502000050380000223800002200000000064B074943
S31502000060C91A891048BF0131491003D0044B0BB19C
S3150200007001481847704700BF3800002238000022A6
S315020000800000000010B5064C237843B9FFF7D8FFED
S31502000090044B13B10448AFF300800123237010BD53
S315020000A0082C002200000000A833000208B5054B08
S315020000B01BB105490548AFF30080BDE80840FFF7CC
S315020000C0CDBF00BF000000000C2C0022A8330002A6
S315020000D000F032BD022800D070470249024800F003
S315020000E0D7B800BFCC2D0002242C002208B5FFF79A
S315020000F0EFFF002008BD00BF2DE9F84F0388DBB1F2
S315020001004FF0000A80464FF00109DFF8D4B0002410
S31502000110314D4FEACA07D8F8043035F8022BD919FF
S31502000120898891420AD00134032CF4D1B8F8003000
S315020001300AF1010A5345EAD8BDE8F88FDB5909FAF4
S3150200014004F603F0B853B3F1807F244BF6B293F86A
S315020001504C2C12D0324230D104F120021BF812305C
S31502000160DB09E0D01BF81230012123F08003C820FE
S315020001700BF8123000F0E6F9D5E7324210D004F15E
S3150200018020021BF81230DB09CDD11BF812300121F7
S3150200019043F08003C8200BF8123000F0D3F9C2E70F
S315020001A0012000F061FA0D4B012093F84C2C3243EA
S315020001B083F84C2C00F028FAE1E7012000F054FA0B
S315020001C0064B012093F84C2C22EA060283F84C2CAB
S315020001D000F01AFAC0E700BFE82F000200E0014073
S315020001E000202040F8B50646FFF786FFEFF310829F
S315020001F0012383F31088234F3B681BB94020224911
S315020002000B7508753B6801333B6082F310883388AF
S3150200021000211BB31D4D08E01B01134445F8234082
S31502000220328801318BB29A4218D9736853F8314039
S3150200023003EBC1029288E0034FEA1223D2B2EBD556
S3150200024002EB031055F820E024F4803C2EF4803EA5
S3150200025045F820E01B0145F820C0DEE7EFF31082E7
S31502000260012383F310883B6813B13B68013B3B6073
S315020002703B681BB9802004490B75087582F3108808
S31502000280F8BD00BF702C0022000D4040000840401F
S3150200029008B5034B03600846FFF7A4FF002008BD1C
S315020002A054524F50144A154992F8263092F8242097
S315020002B0DBB202F00F02082A15D0092A51F82330C0
S315020002C00AD00A2A0ABF0E4AD340A2FB03230D4ACA
S315020002D008BFDB0813607047094AA2FB0323094AD9
S315020002E09B0813607047064A51F82330A2FB03238A
S315020002F0044A5B081360704700E0014000080022D0
S31502000300ABAAAAAA7C2C0022704700BFFFFFFFFF00
S31502000310F8B54AF2035001235549564AA1F8FA03A1
S31502000320938093889BB2002BFBD101249FED4C6BEB
S315020003309FED4D7B4FF400404F4B5049C3E90711E7
S315020003405961148083ED007F1861FFF7ABFF092224
S315020003501621474B83F8501A83F8A22093F8002CF3
S315020003601AB993F8013C980772D0414C94F8003CB4
S31502000370002B62D000223E4B83F8012C83F8002C1E
S3150200038000233B4A82F8323092F83C301907FBD5FB
S3150200039045F6017040F211110023354C1085A2F882
S315020003A04C1082F82A3094F83C309B06FBD5042286
S315020003B0012505262F4B324F1A77276284F82450DF
S315020003C084F82660FFF76EFF9620294600F0BAF8F9
S315020003D0002384F824302762FFF764FF962029461B
S315020003E000F0B0F884F82660FFF75CFF84F830501E
S315020003F084F8525084F8535094F855301C4A43F00E
S31502000400400384F8553092F85530DB09FBD0C523FA
S31502000410022082F8540082F8553092F85530144979
S3150200042003F0BF0382F8553091F85530DB09FBD152
S315020004304FF42543A1F8FA33F8BD0121C82084F808
S31502000440001C00F07FF894F8003C012BFBD191E7E9
S315020004504FF47A70FFF758FF92E700BFAFF30080C0
S31502000460006CDC0200127A0000800000002D3101CF
S3150200047000E0014000C101400008002200389C1C37
S315020004803223123138B50025284C0121C82084F8C0
S31502000490285000F057F884F8245094F82430002BA2
S315020004A0FBD194F82430214943F0020384F8243026
S315020004B091F82430C3F340009B07F9D41B4A81F814
S315020004C0220092F8223003F0FF00002BF9D192F8B5
S315020004D04030164960F3C71382F8403091F8403035
S315020004E0DB09FBD191F84200104A63F3C71081F889
S315020004F0420092F84230DB09FBD192F844000B49E4
S3150200050063F3C71082F8440091F84430C3F3C01471
S31502000510DB09F9D1012000F0A7F8054B012083F889
S315020005204C4CBDE8384000F06FB800BF00202040B8
S3150200053000E00140FFFFFFFFA0F101000028FBD110
S31502000540704700BF4FF47A7310B400FB01F1104CF0
S31502000550104A2468B2FBF4F2A1FB034030B9B4FBA3
S31502000560F2F058B15DF8044BFFF7E6BFB1FBF2F1CA
S31502000570A1FB03132BB908460028F3D15DF8044BFF
S3150200058070474FF0FF3C5DF8044B6046FFF7D4BF5F
S315020005907C2C002200CA9A3B70B500240D4B0E4EED
S315020005A0B3F80021B3F82051ADB2154025FA04F391
S315020005B0DB0704D556F82430E0B203B1984701347C
S315020005C0102CF3D1034AA2F81051B2F820311D4281
S315020005D0FBD170BD00C00040302C002200226023F7
S315020005E010B40748074C30F8021F02F5C65C013208
S315020005F009B144F82C10013BF5D15DF8044B704764
S31502000600EE2F000200600040EFF31081012383F316
S315020006101088124B33F8102092B22AB133F8102008
S31502000620013A92B223F8102033F810309BB293B9F4
S3150200063010B40B4A0B4CB2F8FA3334F810009BB2E2
S3150200064043F4254323EA0003A2F8FA3381F3108820
S315020006505DF8044B704781F310887047742C0022B2
S3150200066000E00140B030000230B4EFF31081012304
S3150200067083F310880E4A32F810309BB26BB90D4CD8
S315020006800D4DB4F8FA3335F810C09BB243EA0C03A9
S3150200069043F425439BB2A4F8FA3332F810300133FF
S315020006A09BB222F8103081F3108830BC704700BF2D
S315020006B0742C002200E00140B030000200BE7047F8
S315020006C008B500F005F8FFF711FDFEE7FFFFFFFF93
S315020006D070B5554B554D6B61BFF34F8FBFF36F8F9F
S315020006E0534A136843F004031360BFF34F8FBFF3FB
S315020006F06F8F4FF0E022936843F480339360BFF329
S315020007004F8FBFF36F8F4FF470034A4CC5F8883092
S315020007100020AC60FFF7DEFCFFF7FAFD0120FFF7D1
S31502000720D9FC2368A3F5806383F30A884248434AC7
S315020007300021121A02F000FB4148424A4249121AAB
S3150200074002F002FB4149424A4248521AD20842F09A
S3150200075009C800BFAFF30080F1E80223E0E80223F4
S315020007600FF007C03C493D4A3D48521AD20842F0B2
S3150200077009C800BFAFF30080F1E80223E0E80223D4
S315020007800FF007C0374B384A0020D21A0021D20890
S3150200079042F007C0AFF30080E3E802010FF005C0A4
S315020007A0BFF34F8FBFF36F8F0024C5F85042BFF3DC
S315020007B04F8FBFF36F8F2D4B2D4D5B1BA34206DD73
S315020007C09E1055F8043B01349847A642F9DCFFF720
S315020007D069FDFFF757FE0320FFF746FF00234FF0A0
S315020007E0100E1C464EF001E0224903F10C0221F8DC
S315020007F0224001330FF007C80320FFF705FF03204D
S31502000800FFF732FF1C4B03205C609C60DC601C61BE
S31502000810FFF7FAFE0220FFF75DFCFFF7DFFEBDE8F9
S315020008207040002000F02AB801020E0000ED00E040
S3150200083000E001E000000002082C0022A42D0022A4
S315020008400000002238000022AC330002B03300025E
S31502000850B033000200000000F03A0002F03A000253
S3150200086000000020000000200000002034000022CA
S3150200087030000022000D404000402040704700BF7B
S3150200088000290FDD10B4084A084C0144D2F8483357
S315020008909B00FBD510F8013B81422371F6D15DF82E
S315020008A0044B7047704700BF0080354000833540D7
S315020008B030B41120002510240849094B4A6822F059
S315020008C080524A60074AC3F80853C3F80C43C3F878
S315020008D01023C3F8080330BC704700BF0030204025
S315020008E0008035401040008080F31188BFF36F8F7F
S315020008F0704700BFEFF31180704700BFEFF311801E
S31502000900102383F31188704730B4002001244FF07E
S31502000910E0234FF08052044D044928600C60C3F86E
S31502000920042D30BCFFF7E0BF142A0022182A002249
S315020009304FF0E0234FF08052C3F8042D704700BFFA
S3150200094030484FF0010101602F480168002909D1A2
S315020009504FF0085282F30A88DFF8B0D02C4A82F3AD
S315020009600A8811E02DE9F00F00B50A6912F48052E7
S3150200097005D01EF0100302D12DED108A08B4C1F87D
S3150200098018D04FF0000202601F4C224D224E4FF04B
S31502000990100282F31188D5F80080B8F1000F0DD14C
S315020009A0D6F800C0BCF1000F08BF00F04FF94FF0B7
S315020009B0000282F31188BFF36F8FE8E7C4F8008064
S315020009C04FF0085282F30A88D8F818D0D8F81C20BB
S315020009D082F30A88D8F8100010F4805006D0009BE3
S315020009E013F0100302D108BCBDEC108A5DF804EBCB
S315020009F0BDE8F00F03484FF00001016081F3118852
S31502000A0070470000182A0022142A0022882D00228C
S31502000A10882C0022102A0022A02D002208B50248A6
S31502000A2000F036F9FEE700BFB830000208B54FF015
S31502000A30E0230A4A1168D3F82C2D01B189685300C4
S31502000A4007D54FF0E0230648D3F8283D00F056FCC0
S31502000A50FEE7044800F052FCFAE700BF142A00221F
S31502000A60C0300002F430000208B5024800F010F966
S31502000A70FEE700BF2031000208B5024800F008F97F
S31502000A80FEE700BF2C31000208B5024800F000F96B
S31502000A90FEE700BF3831000208B5024800F0F8F858
S31502000AA0FEE700BF4831000208B5024800F0F0F840
S31502000AB0FEE700BF5031000210B5054C2368013332
S31502000AC0236001F0BDFE2368013B236010BD00BF19
S31502000AD0802C002270B40E480E490F4A0F4B85B087
S31502000AE0CDE90001CDE902230D480E4B0E499DEDDD
S31502000AF0007FC3E90E0100200C4E0D4D0D4C83ED17
S31502000B00027FC3E90B549E6105B070BC704700BFFB
S31502000B101D0A00022D0A0002690A0002790A000271
S31502000B204109000200010022B90A0002890A0002F4
S31502000B30990A0002A90A00022DE9F047FFF7DEFE34
S31502000B4000F060F84FF0700E4FF0E021214C4EF0AD
S31502000B5001E02346D1F8081D1F4A1160091B5A58A5
S31502000B6043F8042B0FF005C84FF0E0221B494FF65D
S31502000B70FF4AB1F1085F98BF4FF008514FF4E029E0
S31502000B804FF00008C2F8084DD2F80C3D144803EAAB
S31502000B900A03144F144E154DDFF854E0DFF854C023
S31502000BA043F0BF6343F40033C2F80C3DC2F8249D00
S31502000BB04FF00853C2F81C8DC2F8207D31602860C0
S31502000BC0CEF80010CCF8000083F30A8801F0C6FFC5
S31502000BD0FEE700BF00010022982D0022A831002264
S31502000BE000000E220000F010942D0022902D00220B
S31502000BF08C2D0022882D002200207047002070478D
S31502000C0000207047704700BF08B5FFF777FEFEE782
S31502000C10821C08B510D0431C04D0033008D06FF0F4
S31502000C20100008BD064800F033F86FF0080008BD52
S31502000C30044800F02DF8F8E7034800F029F8F4E735
S31502000C40603100029C31000280310002704700BF11
S31502000C50FFF72EBE10B582B08DF80700FFF74EFEE5
S31502000C609DF8073004460A2B0AD001210DF1070030
S31502000C70FFF706FE2046FFF737FE002002B010BD42
S31502000C8001210248FFF7FCFDEFE700BF2633000211
S31502000C90F0B5054683B0FFF731FE2B780646D3B191
S31502000CA0104F0AE001210DF10700FFF7E9FD20468A
S31502000CB0FFF71AFE15F8013F6BB18DF80730FFF703
S31502000CC01DFE9DF8073004460A2BEBD1012138465A
S31502000CD0FFF7D6FDE6E73046FFF706FE002003B033
S31502000CE0F0BD00BF2633000238B5138800290B4435
S31502000CF0138007DD0446451814F8010BFFF7AAFF17
S31502000D00A542F9D138BD00BF2DE9F04F17468BB089
S31502000D10009317F8013BA3B182468B460020164684
S31502000D201946252907F101040ED03978002866D024
S31502000D303E4627460029F4D118B1391A5A460139D6
S31502000D40D0470BB0BDE8F08F18B1391A5A460139AF
S31502000D50D0474FF0000814F8012C2046A2F12003D8
S31502000D60102B0AD8DFE803F04809094509090909E1
S31502000D7009090942093F09093A002A2A62D1009A59
S31502000D8052F8040B01B2002903DA404201B248F0DC
S31502000D90010800922278B81C2E2A68D04FF0FF3440
S31502000DA002F0FB03682B4FF000038DF8173028D0B2
S31502000DB0782A10D8632A73D90123A2F16407FDB2F7
S31502000DC0AB40974D2B4240F0F381732A00F0D3805B
S31502000DD0702A00F02F81064601382CE048F01008F0
S31502000DE027460134B7E748F00108F9E748F0020858
S31502000DF0F6E748F00808F3E748F00408F0E730465B
S31502000E0096E7064616F8015B782D14D8632D3DD970
S31502000E100123A5F164075FFA87FC03FA0CF3DFF8F6
S31502000E2000C213EA0C0F40F04981732D00F0A48032
S31502000E30702D00F00081374617F8011B00297FF458
S31502000E4070AF79E7A2F13003DCB2092C4FF0000152
S31502000E50A2D810F8012B01EB810103EB4101A2F1AB
S31502000E603003DCB2092C09B2F3D92E2A96D10278C4
S31502000E702A2A25D1009B427853F8044B023024B229
S31502000E80009324EAE47408F0EF0889E7582D00F08D
S31502000E90E281632D2BD0002DCDD10BB0BDE8F08FB2
S31502000EA0582A00F0F081632A20D0002A93D110F844
S31502000EB0011C0746461E104600297FF432AF3BE767
S31502000EC0A2F13003DDB2092D4FF0000400F101005A
S31502000ED0D9D804EB840410F8012B03EB44031CB2AB
S31502000EE0A2F13003DDB2092DF3D9CCE70646012281
S31502000EF001398DB20A214FF0FF34009B029253F85A
S31502000F00042B01910DF125098DF8252000930391FB
S31502000F1018F0110872D09DF8173023B15A460121F4
S31502000F200DF11700D047019B002B48DB013D002C39
S31502000F302DB206F1010758DD013C24B2013C012124
S31502000F405A46384824B2D047611CF7D148465A4619
S31502000F500299D047002DC0F2AB80013D5A460121CD
S31502000F6031482DB2D0476B1CF7D1317800200029C9
S31502000F707FF4D7AEE0E606460098002C50F8049BB4
S31502000F808DB2A3B2C0F2F780013B1CB2621C00F024
S31502000F909881A1B24A468446013102E0013900F045
S31502000FA0FD801746A3B212F8010B5C1E24B200287C
S31502000FB0F4D160460A2200900192039261E0194838
S31502000FC05A460121D047039BD806AFD513F0400FEE
S31502000FD0164B17485A4618BF18460121D047013DFD
S31502000FE0002C2DB206F10107A6DCB8F1100F55D080
S31502000FF0013C2204AAD447F6FF749FE7013D2FB2B3
S31502001000002FADB287DB084D013F5A460121284623
S315020010103FB2D0477B1CF7D14FF6FF757BE700BF87
S3150200102021081200C0310002BC310002B4310002B4
S31502001030B83100020646009A8DB252F8043B002BE4
S3150200104000F0A480023D0F2BADB20DF1260740F24F
S315020010504B81B9469E4803F00F0C10F80CC0FF2BCB
S3150200106009F801CD4FEA1313F5D86FF06F0101911C
S3150200107090210391C35C009209F8013C09F1FF3902
S31502001080A3B2A7EB0902029292B29C1A24B2002CD6
S31502001090D5BFAA1AEB1A95B29DB239E7002D03DB2A
S315020010A02C464FF0FF3549E748465A460299D04743
S315020010B03178002000297FF434AE3DE66C2A2CD12B
S315020010C0009A52F8043B009289B20D46142F0CD8AE
S315020010D0DFE807F02D0B0B0B0B2D0B0B0B0B0B424B
S315020010E00B0B0B0B0B0B0B0B80000A2201920392CC
S315020010F0002B79D1002C3AD00DF12607B946039B75
S3150200110073484FEAA30E0EF0100E10F80E3009F1D6
S31502001110FF3989F80030A3B2B3E70098682A50F87D
S31502001120043B0090D0D1692D48D11BB289B2002B65
S315020011300D46C0F2828018F0020F49D118F0040F52
S31502001140D3D020228DF817200A2201398DB20192BE
S315020011500392002BCED047E018F0080F32D0002BB6
S3150200116040F09A80082301930393002CC4D1029481
S315020011700DF12609CCE699F80070002F00F0868062
S315020011804F4617F8012F002AFBD113E70A210DF16A
S315020011902607B9464E48019103916BE70A23174683
S315020011A01A460193CDF800C04FF6FF73039268E723
S315020011B0009A064652F8043B009285E7642DB4D0A5
S315020011C09BB281E7082201920392002B92D00BE098
S315020011D02B22B7E71022039218F0080F28D19DF9A7
S315020011E00C200192002B85D003998A1002F0100E72
S315020011F001F03F02934271D30DF12607B9463448F6
S31502001200029400EB0E0CB3FBF2F102FB11340B4617
S315020012101CF80410934209F8011DF4D29E4410F8FA
S315020012200E30029C09F8013C09F1FF39A3B228E706
S31502001230DBB99DF90C3001935CE70A224D1E01923F
S3150200124011462D224FF0000E8DF817205B420A46FA
S31502001250ADB20391CEE76C2A28D1009A50230393AC
S3150200126052F8043B8DB20092B6E7039A022142F08D
S315020012708000821002F0100E1022039040B20190FC
S31502001280691A8DB2B6E70646009AE7E70A23009086
S315020012900297019303933BE66FF07702882101924E
S315020012A003914FF0000E08220121E9E70098682A0F
S315020012B050F8043B00900DD150229BB28DB203929E
S315020012C08AE70A2300220090CDE9013203931FE642
S315020012D02833000250228DB203927DE70DF12607D4
S315020012E0B94605489E4410E76FF06F0101919021BF
S315020012F0B94601480391BDE6283300024FF0000CBF
S315020013000FB400B583B004AB53F8042B07480DF1B4
S315020013100201ADF802C00193FFF7F6FCBDF9020027
S3150200132003B05DF804EB04B0704700BFE90C00029D
S31502001330F0B50546012685B017468E40FFF7DEFA60
S315020013406B6801336B60FFF7CFFA08E0A8682122C9
S31502001350314603AB009700F0B7FB041E0ADBFFF72A
S31502001360CDFA2C6846EA040129603440FFF7BCFA3C
S31502001370002CEBD1FFF7C2FA6B68013B6B60FFF7FB
S31502001380B3FA204605B0F0BD4FF0FF32FFF7D0BFEB
S3150200139038B5044601258D40FFF7B0FA236823EAE3
S315020013A005032360FFF7A0FA606800B938BD294635
S315020013B0A068BDE8384000F01FBB00BF70B5092326
S315020013C0002584B0084A044668460E46CDE9013532
S315020013D0009200F08DFAA842A06003DB2846C4E919
S315020013E00055E66004B070BD4D4C4F4310B504463F
S315020013F08068002807DD00F0C1FA002802DB00231E
S315020014001846A36010BD6FF0100010BD072A38B54C
S315020014108C461446054635DD83073ED00346C9B2DF
S315020014201A4603F8011B9807FAD1013C2C44A41A68
S315020014304FEA0C4202F47F0201EB01200243032C25
S3150200144042EA0C6225DD043C4FEA940C0CF10100E1
S315020014504FEA800EAEF1040E4FEA9E0E0EF1010E19
S315020014604EF001E003EB800043F8042B0FF005C0B9
S31502001470CCEB8C7C04EB8C0414B1224601F05CFCB0
S31502001480284638BD002AFBDDC9B201F055FC2846C4
S3150200149038BD1846002CF0D1F2E7C9B24FEA0C4229
S315020014A001EB012302F47F021A4342EA0C6203466D
S315020014B0C9E700BF38B517491748FFF77FFF041E73
S315020014C01FDB164C1648002521460822C0E90000FB
S315020014D0144B246000E00346013AC3E9004103F1DC
S315020014E048000B6019461D72F5D1636000F0A6F93B
S315020014F0041E06DB00240C4B1D6000F059F9204641
S3150200150038BD00F069F900F0CBF90348FFF76EFF2A
S31502001510204638BDC4310002800A00222C0800226F
S31502001520340800223C0800227C0A00222DE9F04FF2
S315020015300B46054685B0002197480393FFF724FF23
S315020015406B690024D3E90D26D3F814A0029201F0A8
S3150200155027F82B6BC5E90D04A34200F3FB80A946CD
S3150200156059F8204F4C4524D08C4FE368F3B1237FC2
S3150200157043F010032377FFF7C1F93A680020538D31
S3150200158001335385FFF7B0F95346012204F11001E6
S31502001590E068B047FFF7B2F93A680020538D013B85
S315020015A05385FFF7A1F9AB6B0133AB6324684C4556
S315020015B0DBD100217848FFF7EBFEAB6B002B05DD94
S315020015C04FF0FF320121E86B00F078FD4FF0000B7F
S315020015D071485946C5F834B0FFF7D6FE2C6A4C4519
S315020015E03ED06E4F6E4EDFF8B0810195237F00210B
S315020015F043F0100323774046FFF7CAFEFFF77EF952
S315020016003A680020538D01335385FFF76DF90121A6
S3150200161053464FF0FF32029D04F11000A847FFF730
S315020016206DF93A680020538D013B5385FFF75CF94B
S3150200163000214046FFF7A8FE23689C4203D0626859
S31502001640136062685A607368C4E9006373681C6059
S31502001650019BC4F808B074601C6AA145C6D11D4638
S3150200166000214D48FFF794FE00214B48FFF78CFE00
S31502001670D5E90594E86BD9F82C60D9F8147000F016
S31502001680DFFC2B689D4203D06A6813606A685A6061
S315020016902B4653F8082F9A4203D0EB681A60EB6880
S315020016A05360002349462B6151F8403F994203D1CA
S315020016B013E01B68994210D09A699442F9D1D9F87D
S315020016C0181011F0010104D13348FFF761FE00241E
S315020016D02DE0039B23F00103039300212E48FFF71D
S315020016E057FE002EF3D0DFF8B480FFF707F9D8F8DB
S315020016F000200020538D01335385FFF7F5F8294862
S31502001700294BA9EB0000C01003FB00F001303A465A
S31502001710039904EB0020B0470446FFF7EFF8D8F828
S3150200172000200020538D013B5385FFF7DDF8002191
S315020017301948FFF729FE1D4B00215A681648C5E9CC
S3150200174000325A6815605D60FFF722FE204605B03A
S31502001750BDE8F08F114FD5F82C80FFF7CFF83A6825
S315020017602046538D05F1200901335385FFF7BCF856
S31502001770D5E90B12534658F8040CB047FFF7BEF8EA
S315020017803A682046538D013B5385FFF7ADF8AB6BA4
S315020017900133AB630DE700BF800A0022142A002240
S315020017A09C0A00223C080022398EE338E40D00220E
S315020017B038B5074D00212846FFF7E6FD0021054C06
S315020017C02846C4E90044A160BDE83840FFF7E0BD01
S315020017D0800A0022900A0022F8B5154D2B682BB319
S315020017E0002700211348FFF7CFFD134AA9681368A3
S315020017F02C685B1AAC421360AF6011D00D4E00210B
S31502001800A7603046FFF7C4FD0021A4F10800FFF7E8
S315020018108DFE00213046FFF7B7FD2C68AC42EED1B3
S31502001820BDE8F84000210348FFF7B2BDF8BD00BF8E
S31502001830900A0022800A00229C2D002230B54FF029
S31502001840100E134D002128464EF001E0114B2D607B
S31502001850024619611D605A601846136040330FF044
S3150200186009C84FF0100E0C4C6860214600204EF05D
S3150200187001E00A4B24600A4698601C605A601946C9
S31502001880136034330FF009C86160002030BD00BF19
S31502001890E40D0022EC0D00229C0A0022A40A00227A
S315020018A000207047836B044A013B03EB4303014666
S315020018B002EBC30001F024B9F411002230B40A4C41
S315020018C0002521461022094B246000E00346013A16
S315020018D0C3E901151C6003F118000B601946F5D126
S315020018E06360002030BC7047EC110022F411002224
S315020018F030B5436883B033F0090330D10546FEF7AD
S31502001900FDFF184A1368934226D0174C17491C1B31
S31502001910E41001FB04F4196801344A60C3E9013496
S3150200192011601B602A68DA606A681A61AA685A61DD
S315020019300F4A104B12681B689A4203D00E4B1B6863
S31502001940034304D0FEF7D0FF204603B030BD01901A
S31502001950FEF7EEFF0198F5E76FF02104E8E76FF076
S315020019600A04F1E7EC110022F4110022ABAAAAAA9A
S31502001970142A0022102A0022182A0022F8B5441E30
S315020019800F2C2BD8FEF7BAFF164F04EB440407EBD5
S31502001990C406B3680546E40083B96FF02904124A07
S315020019A0124B12681B689A4203D0114B1B682B43D9
S315020019B011D02846FEF798FF2046F8BD304601F0C2
S315020019C03DF800220B4B59683B51716014460E607C
S315020019D05E60B260E3E7FEF7ABFFEAE76FF0110481
S315020019E0EAE700BFF4110022142A0022102A00227C
S315020019F0182A0022EC1100222DE9F84F451E0F2D60
S31502001A0056D80C46FEF77AFF2B4F05EB450307EB3C
S31502001A10C30BDBF8082081464FEA4508DB008AB390
S31502001A20F858DBF81430584544EA0301CBF8141091
S31502001A3006D125E073B95C4522D02046DBF81410A6
S31502001A40D0E9126A1AF0010F046806EA0103F1D11D
S31502001A509E42F0D1036D196000F088FF1AF0200F44
S31502001A6006D0DBF8143023EA0603CBF814303BB178
S31502001A701AF0100FDFD00023A84407EBC8077B61DA
S31502001A80002401E06FF029040C4A0D4B12681B6812
S31502001A909A4204D00B4B1B6859EA030305D0484609
S31502001AA0FEF722FF2046BDE8F88FFEF741FFF6E774
S31502001AB06FF01104F6E700BFF4110022142A002287
S31502001AC0102A0022182A00222DE9F04B0027441E74
S31502001AD082B00F2C019700F288800E46002900F092
S31502001AE08180994632F0310315467BD10A9B013338
S31502001AF078DB3F4F3B68002B71D13E4B1B68002BB6
S31502001B006DDCDFF804B1DBF80030002B67D0FEF79E
S31502001B10F1FE002863D1FEF7F1FE3749804604EB59
S31502001B20440001EBC00083686200002B50D0D0F85D
S31502001B3010C01CF0080F2ED0131901EBC3035B690A
S31502001B4015F0010F06EA030E2ED0BEF1000F2DD1BD
S31502001B502A4B1CF0010F2A4A18BF1A46DBF800303E
S31502001B600A995A6301AAC3E91265C3F850905A64E6
S31502001B7000F092FF234BDBF800201B689A4203D049
S31502001B803B6858EA030327D04046FEF7ADFE0198AC
S31502001B9002B0BDE8F08B131951F833309842CBD01E
S31502001BA06FF028030193E5E77645D1D1A806C9F877
S31502001BB0003005D5101923EA060301EBC000436184
S31502001BC0EB06D7D50020224401EBC2035861D1E7C8
S31502001BD06FF029030193CDE7FEF7AAFED4E76FF073
S31502001BE01800D5E76FF01000D2E76FF01100CFE7CB
S31502001BF0182A0022802C0022F41100224833000207
S31502001C0054330002102A0022142A002230B40A4C4D
S31502001C10002521460822094B246000E00346013ACA
S31502001C20C3E901151C6003F11C000B601946F5D1CE
S31502001C306360002030BC7047741300227C130022BC
S31502001C40034653F80C2BD01C002AB8BF0246B1EB50
S31502001C50A20F18460EDD002202E0C26891420DDA9A
S31502001C6040688342F9D18A4207DB00687047C2683E
S31502001C708A4202DA00688342F9D17047FDDD0068C4
S31502001C80704700BF70B50E460C4656F8081B05464F
S31502001C90891BFFF7D5FF63680C3523F00103A842C1
S31502001CA0636002D0C3688B4209D000234268C4E94C
S31502001CB00202426816604660C4E9043170BD2346DA
S31502001CC00246816843F8101F42F8083F21696261A3
S31502001CD001B14B600023A36070BD00BF0268836838
S31502001CE092B153B1426843E902024268083B13606B
S31502001CF0D0E90221436051600268904203D04368F2
S31502001D001A60436853607047C2681360002BFAD0AA
S31502001D10C2685A60704700BF00282DE9F0413BDDDA
S31502001D200F288ABF0730102520F00705FEF7E6FDCB
S31502001D30DFF86C800746D8F8006029463046FFF780
S31502001D407FFF0C36B042044611D0FFF7C7FFC368C7
S31502001D505B1B172B0DD854F8043C43F0010344F8DF
S31502001D60043C3846FEF7C0FD2046BDE8F08100245B
S31502001D70F7E74119A0F108034B6050F8082C4251CD
S31502001D80536803F001030B43536040F8081CD8F86C
S31502001D900000FFF777FFDEE700242046BDE8F0816A
S31502001DA05C14002270B50546FEF7A8FD55E902341B
S31502001DB024F0010445F8044C5A680646D2070ED5AB
S31502001DC06368DB0720D5A5F10804174B214618687E
S31502001DD0FFF758FF3046BDE87040FEF785BD03F1B8
S31502001DE00800FFF77BFF55F8082CD2E9003121F0F5
S31502001DF001010B605968526861F300025A6055F896
S31502001E00044C6368DB07DED404F10800FFF766FFC3
S31502001E102268D2E9003121F001010B60596852684B
S31502001E2061F300025A60D0E75C14002270B52248C2
S31502001E30224D03682A68033323F0030303F11B01CF
S31502001E4021F007011E4C103A521A23601A602268CA
S31502001E502B6884B0151DCDE90055036002F10C0311
S31502001E60CDE902339DED007F82ED017F10680830D7
S31502001E700B185D6055680D50686800F00100184344
S31502001E806860256853602A1D4A606E680E60726833
S31502001E90206802F001020A43726069605A6842F0E1
S31502001EA001025A60836843F001038360FFF7EAFE8A
S31502001EB0002004B070BD00BF942D0022902D002298
S31502001EC05C14002210B40B4C0020214608220A4B57
S31502001ED0246000E06346013AC3E9011018631C60FE
S31502001EE003F1380C0B601946F4D1636000205DF8EB
S31502001EF0044B704760140022681400220B4810B489
S31502001F000146002404220A4B0060013AC3E9011487
S31502001F10186003F1340C0B60194601D06346F4E7EE
S31502001F2043605DF8044B0020704700BF281600226C
S31502001F303016002230B40A4C002521460822094BED
S31502001F40246000E00346013AC3E901151C6003F16F
S31502001F5034000B601946F5D16360002030BC70472F
S31502001F6000170022081700220B4810B4014600246D
S31502001F7004220A4B0060013AC3E90114186003F116
S31502001F80200C0B60194601D06346F4E743605DF806
S31502001F90044B0020704700BFA8180022B018002288
S31502001FA02DE9F041846BDFF85880013CC4EBC4078D
S31502001FB000294FEAC40508EB870703DB01463846CA
S31502001FC000F09EFD2B1B08EB830632699B009207ED
S31502001FD014D458F80340A74210D0736909E0284682
S31502001FE000F0C4FC7369AA6CA742A3EB02037361F7
S31502001FF004D02546AA6C24689A42F0DDBDE8F08139
S31502002000381900224FF0FF31FFF7CABF30B40A4C2D
S31502002010002521461022094B246000E00346013ABE
S31502002020C3E901151C6003F11C000B601946F5D1CA
S315020020306360002030BC7047301900223819002234
S31502002040F8B5441E0F2C2BD8FEF758FC164FC4EBDE
S31502002050C40407EB8406B3680546A40083B96FF08F
S315020020602904124A124B12681B689A4203D0114B7A
S315020020701B682B4311D02846FEF736FC2046F8BDD6
S31502002080304600F0DBFC00220B4B59683B51716075
S3150200209014460E605E60B260E3E7FEF749FCEAE7CB
S315020020A06FF01104EAE700BF38190022142A002251
S315020020B0102A0022182A00223019002200232DE9B4
S315020020C0F04F441E85B00F2C039379D899420D46E2
S315020020D073DD501C174670DBDFF8FCA0DAF800301F
S315020020E0002B67D1384B1B68002B63DCDFF8EC90C2
S315020020F0D9F80030002B5DD0FEF7FCFB002859D141
S31502002100FEF7FCFBDFF8D8B0C4EBC4060BEB860681
S31502002110B3688046E200002B43D0B169D9F800309B
S31502002120A9420BDB316989071BD5111B0BEB810118
S315020021304869A8421FDB401B486102E06FF01002AB
S315020021400392224A12689A4204D0DAF8003058EA18
S3150200215003032CD04046FEF7C7FB039805B0BDE843
S31502002160F08F19463046019200F0E6FCD9F80030AD
S31502002170019A8342D9D0121B0BEB820BDBF810209B
S31502002180134C12F0010F134A18BF22465A6303AAD0
S315020021909D645A643946304600F07EFCD9F8003018
S315020021A0CFE76FF02902D9F800300392C9E7FEF7AC
S315020021B0BFFBCFE76FF01800D0E76FF01000CDE756
S315020021C06FF01100CAE700BF802C0022102A0022FD
S315020021D0603300026C330002182A0022142A0022FD
S315020021E038190022202270B5194C0021234642F0EC
S315020021F001E0184D18482960016043F8042BC3E931
S31502002200003308330FF005C800260422314613486E
S31502002210134DC4F80461C4F80C61FFF7F7F81149CD
S315020022202C4620203246B4460F4B2D600E6000E04D
S315020022300B4601320138C3E9014283F82FC01D6003
S3150200224003F1700123601C46F2D16B60002070BD61
S3150200225000290022102A0022142A0022082A00221B
S31502002260F81A0022182A0022001B002230B400228B
S315020022706FF006054FF080744FF0080C90F830307E
S3150200228090F82C1023F0030380F82D1080F82E10FE
S3150200229080F8303090F92810836EC263418502645B
S315020022A04264C26680F82FC043F8044C43F8445C8B
S315020022B043F80C2C4269A3F1440422F0010243F8CC
S315020022C0082C836E0269456AD91C42F480525B1B54
S315020022D0C0E9064330BC016202617047012330B493
S315020022E090F82E50104C80F82F3004EBC5018A6806
S315020022F0AB4042600A46043202608A681060D4F833
S31502002300082188601A43C4F8082190F830309B07E8
S31502002310236848BFC4F80C019D4202DA034B2560CC
S31502002320186030BC704700BF00290022102A002224
S3150200233010B52D4B90F82E10D3F80C21904204BF05
S315020023400022C3F80C210268904203D0446822603E
S315020023504468546090F83020D40734D403EBC10C9F
S315020023606246DCF804400432944209D01F4A1168DE
S31502002370814200D010BDD3F80C1169B3116010BDB3
S315020023804FF0010ED3F808411A680EFA01FC24EA4E
S315020023900C049142C3F80841E8D11F2A22DC1CEA48
S315020023A0040F0AD1C2F1200102E01CEA040F04D193
S315020023B0013201390EFA02FCF7D11A600B4A116892
S315020023C08142D7D1D7E722F0010280F83020074AAE
S315020023D011688142CED1CEE7196803EBC103596871
S315020023E01160CCE72022E8E700290022102A002209
S315020023F02DE9F041426822F4995323F00103002BA0
S315020024006ED106690546002E67DBC368013B1F2BAA
S3150200241063D8920642D57F2E5FDDD0F81480FEF790
S315020024206DFA314B07461C689C4229D0012221686D
S3150200243020464B6019602B68E3606B682361AB68CA
S315020024406361EB686662013B464484F82C3084F88B
S3150200245028206285A666FFF709FF244A244B1268E4
S315020024601B68A4689A4203D0224B1B683B4321D0C7
S315020024703846FEF739FA002C07DB2046BDE8F08124
S31502002480D8B1FEF731FA6FF021046B689B06F4D4DB
S315020024904046FFF787FC2046BDE8F081873626F0E6
S315020024A007063046FFF738FC80460028B7D16FF0A2
S315020024B02004E2E7FEF73CFADAE70D4A0B4B126814
S315020024C01B689A42DDD00B4B1C68002CD9D1FEF753
S315020024D02FFA2046FEF708FAD5E76FF01004CCE78C
S315020024E06FF00A04C9E700BFF81A0022142A002274
S315020024F0102A0022182A002270B5244B0D461B68AA
S31502002500002B23DD441E1F2C3CD8214EFEF7F6F984
S31502002510204BC4EBC40403EB041393F82F200446A8
S31502002520082A23D0002A14BF6FF028056FF0290568
S31502002530194B32681B689A4203D0184B1B68234317
S3150200254011D02046FEF7D0F9284670BD104E3368EA
S31502002550ABB128B1441E1F2C14D89B688342D5D137
S315020025606FF02805F0E7FEF7E3F9EAE79A691846FD
S315020025705562DB6800259362FFF7B0FED8E7441E7A
S315020025801F2CC3D96FF01105DEE700BF802C002295
S31502002590142A0022001B0022102A0022182A0022D6
S315020025A0024B186800B18068704700BF142A0022E7
S315020025B000232DE9F04182B00193431C43DB234FF4
S315020025C03B68002B3CD1224B1B68002B38DCDFF822
S315020025D08C80D8F80030002B32D00446FEF78AF9F8
S315020025E0054668BBFEF78AF9D8F800300646DA6B6C
S315020025F0002A0FDD013ADA63164A12689A4202D0BD
S315020026003B68334319D03046FEF76EF9019802B0A3
S31502002610BDE8F0816FF031020192002CECD00E4A37
S315020026209D635A6301AA5A642046294600F0C2F9FC
S31502002630D8F80030C3E90033DEE7FEF779F9E2E7BE
S315020026406FF01800E3E76FF01000E0E7182A0022A7
S31502002650802C0022102A002284330002142A00222F
S315020026600023F0B5051E83B0019333DB1B4F3B6895
S315020026706BBB1B4B1B68002B29DC1A4E336833B32A
S31502002680FEF738F9044610BB15B9019803B0F0BD40
S31502002690FEF734F90246336813499C6359632146AF
S315020026A0144601AA5A64284600F0A6F933680F4A6E
S315020026B01B6012685B60934202D03B68234303D0DF
S315020026C02046FEF711F9E0E7FEF732F9F8E76FF078
S315020026D01800DBE76FF01000D8E700BF182A0022C7
S315020026E0802C0022142A002278330002102A0022AB
S315020026F00B4810B40146002404220A4B0060013A3A
S31502002700C3E90114186003F1280C0B60194601D0C5
S315020027106346F4E743605DF8044B0020704700BF50
S31502002720442B00224C2B002230B40A4C00252146B1
S315020027300822094B246000E00346013AC3E9011569
S315020027401C6003F124000B601946F5D1636000207A
S3150200275030BC70471C2A0022242A002210B40E4BD9
S315020027600E4C19682368A3420DD0826801F100411C
S315020027700131A2EB010C02E01B68A34203D09A6866
S31502002780521A9445F8D25A68C0E900325A68106063
S3150200279058605DF8044B7047002C0022F02B002293
S315020027A00021002038B50C4A0C4B0D4CC2E9000141
S315020027B0C4E9000106250024C3E90033FEF79EF8AA
S315020027C04FF0E023072207491D6159619C611A6196
S315020027D0FEF78AF8204638BD002C0022F02B002294
S315020027E0F82B0022FF3D49004FF0E02300221A6138
S315020027F0704700BFC0E903234B1C10B404D1C0E9E3
S3150200280000005DF8044B7047044B5DF8044B1B68EF
S315020028100A330B448360FFF7A1BF00BF002C0022DE
S3150200282010B5064CC0E90323246804F10A0E71446C
S315020028308160BDE81040FFF791BF00BF002C002267
S315020028404FF0E0234FF0007270B51969C3F8042DFA
S31502002850FEF754F8194B0646D3E900520A3542F1FF
S315020028600002C3E90052164C0CE09A68AA1A002A22
S315020028700BDB1A68934203D059680A6059685160A3
S31502002880DA688AB92368A342EFD10E4A0E4B126860
S315020028901B689A4203D00D4B1B68334307D0304660
S315020028A0BDE87040FEF720B818699047EAE7FEF7E0
S315020028B03FF83046BDE87040FEF716B8002C0022FD
S315020028C0F02B0022142A0022102A0022182A0022A3
S315020028D008B5FFF787FC002823DBFFF797FB0028E4
S315020028E01FDBFEF7EBFF00281BDBFFF78FF9002843
S315020028F017DBFFF71FFB002813DBFFF735FB00286A
S315020029000FDBFFF7FBFA00280BDBFFF7DBFA0028E9
S3150200291007DBFFF7EDFE002803DBFFF705FF00EA02
S31502002920E07008BD0368984203D0426813604268AB
S315020029305A6090F82F30022B07D0042380F82F30EC
S31502002940436B9B6803B11847704700B583B001908B
S31502002950FFF7C4FC0198436B9B681BB103B05DF89B
S3150200296004EB184703B05DF804FB00BF034610B53D
S3150200297053F8542F04469A4203D0836D1A60836D2E
S31502002980536023689C4203D06268136062685A608F
S3150200299094F82F30022B06D00423002284F82F301D
S315020029A0636C1A6010BD2046FFF798FC0022636C28
S315020029B01A6010BD70B50E4D04462B6893F82F2091
S315020029C0012A0DD0042A07D02146BDE87040094AE3
S315020029D003F15400FFF70EBF062283F82F20F3E718
S315020029E01846FFF7A5FC02222B6883F82F20EBE797
S315020029F0142A00222529000270B50E4D04462B68C2
S31502002A0093F82F20012A0DD0042A07D02146BDE8CB
S31502002A107040094A03F15400FFF702BF062283F809
S31502002A202F20F3E71846FFF783FC02222B6883F870
S31502002A302F20EBE7142A002225290002F8B50468A4
S31502002A40A04227D0054604276FF0320606E0636CE3
S31502002A5084F82F701E602C68A5421BD0234653F8BB
S31502002A60542F9A4203D0A36D1A60A36D5360236854
S31502002A709C4203D06268136062685A6094F82F30F1
S31502002A80022BE4D12046FFF729FC636C1E602C68FA
S31502002A90A542E3D1F8BD00BF6FF0310238B5174D3C
S31502002AA02B685B6C1A6001B938BD044682682B68D4
S31502002AB008469A632169FFF77DFF2369DB0707D47E
S31502002AC062682B68C3E9004262681360636038BDBE
S31502002AD0236828689C4290F82E1003D106E01B68F2
S31502002AE09C4203D093F82E208A42F8D95A68C0E94C
S31502002AF000325A681060586038BD00BF142A00229E
S31502002B000B68994203D04A6813604A685A600368A0
S31502002B1091F82EC0984203D106E01B68984203D072
S31502002B2093F82E206245F8D95A68C1E900325A68EC
S31502002B3011605960704700BF0346006883420AD09D
S31502002B401B69DB0708D590F82E3091F82E209A42A1
S31502002B5038BF084670470846704700BF08B5FDF7FC
S31502002B60CDFEFEF775F8FFF761F9002820DBFEF7C8
S31502002B7043F8002828DBFDF7ADFF00281CDBFFF732
S31502002B80A7FE002824DBFFF70BFE002824DB1648ED
S31502002B90FFF72EFC002813DB0021FFF7ADFC00280F
S31502002BA01EDBFDF7B1FEFFF71FFEFEF72DF8FEE76F
S31502002BB00E48FEF76DF8FAE70D48FEF769F8F6E7F4
S31502002BC00C48FEF765F8EEE70B48FEF761F8EEE70C
S31502002BD00A48FEF75DF8E8E70948FEF759F8E4E720
S31502002BE00848FEF755F8DEE790330002CC310002C2
S31502002BF0FC31000280320002E43100021832000287
S31502002C003C3200025C32000208B5FFF7EDFDFDF72B
S31502002C10FBFFFEE710B5FEF74DFC002816DBFDF7BD
S31502002C20EDFF002812DB002203210E48FEF766FBA9
S31502002C3000F04CF80446FDF7E3FF002C0BDA2046C1
S31502002C40FDF7E6FFBDE81040FFF7DEBF0648FEF7D8
S31502002C501FF8FDF7D5FF0548FEF71AF8BDE8104044
S31502002C60FFF7D2BFA4320002C8320002E4320002E9
S31502002C7008B5044C2046FEF741FB4FF42F70FFF7D0
S31502002C80EFFCF7E7FC32000208B50E4D0E4C284663
S31502002C90FEF734FBB4F8C2304FF4FA709BB283F0FD
S31502002CA00103A4F8C230B4F882309BB283F48043A5
S31502002CB0A4F88230638C9BB283F080036384FFF7AF
S31502002CC0CFFCE4E7043300020000404008B5164892
S31502002CD0FDF7DEFF154A1648B2F8C23023F00103AB
S31502002CE01B041B0CA2F8C230B2F8823023F48043D4
S31502002CF01B041B0CA2F88230538C23F080031B04A6
S31502002D001B0C5384FFF774FB0021FFF7F5FB094800
S31502002D10FFF76EFB0021FFF7EFFB4FF0FF30FFF7E7
S31502002D2047FC002008BD00BF0C33000200004040F3
S31502002D30180000220000002202440346934200D1FA
S31502002D40704703F8011BF9E70A44431E914200D17A
S31502002D50704710B511F8014B914203F8014FF9D1B2
S31502002D6010BDFFFF4275696C742077697468205242
S31502002D70656E6573617320416476616E6365642076
S31502002D80466C657869626C6520536F66747761720A
S31502002D9065205061636B6167652076657273696F42
S31502002DA06E20352E332E3000352E332E30000000A5
S31502002DB000000305F8B500BFF8BC08BC9E46704784
S31502002DC0F8B500BFF8BC08BC9E467047420000003A
S31502002DD0D82D0002000000000000000000000000E4
S31502002DE000800000020000000080000003000000D6
S31502002DF000800000040000000080000005000000C2
S31502002E0000800000070000000040000008000000EB
S31502002E100040000009000000008000000B000000D6
S31502002E20008000000E000000008000000F0000007D
S31502002E300008011C000100000008011C010100003D
S31502002E400008011C020100000008011C0301000029
S31502002E50000C011C040100000000011C0501000019
S31502002E600000011C0601000004000000070100002A
S31502002E70000C01170C010000000001170E010000F2
S31502002E800000010008020000000001000902000023
S31502002E90000001000A020000000001000B0200000F
S31502002EA0000C011700030000000C011701030000CB
S31502002EB0000C011702030000000C011703030000B7
S31502002EC0000C011704030000000C011705030000A3
S31502002ED0000C011706030000000401170703000097
S31502002EE000040117080300000000010509030000A1
S31502002EF0000001050A030000000001130704000098
S31502002F000000011408040000000001140904000076
S31502002F10000C01060A040000000C01060B04000066
S31502002F20000C01060C040000000C01060D04000052
S31502002F30040000000E04000000000113000500005A
S31502002F400000011301050000000401070B05000043
S31502002F50000401070C050000040000000006000042
S31502002F600008011C000800000008011C01080000FE
S31502002F700008011C020800000008011C03080000EA
S31502002F800008011C040800000008011C08080000D3
S31502002F900400000009080000000001130E080000EA
S31502002FA0000001130F080000000C0104020A0000D1
S31502002FB0000C0104030A0000000C0104040A0000CC
S31502002FC0000C0104050A000000000000060A0000C9
S31502002FD0000C01050E0A0000000C01050F0A000094
S31502002FE0000C0114010B0000020403040404FFFF99
S31502002FF000000000000000000000000000000000C9
S3150200300000000000000000000000000000000000B8
S3150200301000000000000000000000000000000000A8
S315020030200000000000000000000000000000000098
S315020030300000000000000000000000000000000088
S315020030400000000000000000000000000000000078
S315020030500000000000000000000000000000000068
S315020030600000000000000000000000000000000058
S315020030700000000000000000000000000000000048
S315020030800000000000000000000000000000000038
S315020030900000000000000000000000000000000028
S315020030A00000000000000000000000000000000018
S315020030B001000200080010004E4D490A00000000FF
S315020030C02A2A2A2048617264206661756C74202A55
S315020030D02A2A202063747874736B3A256420204868
S315020030E04653523A25782020434653523A25780AC7
S315020030F0000000002A2A2A2048617264206661754F
S315020031006C74202A2A2A202063747874736B3A25F9
S31502003110642020484653523A257825780A00000052
S315020031204D5055204661756C740A00004275732035
S315020031304661756C740A00005573616765204661C5
S31502003140756C740A00000000535643616C6C0A00E9
S315020031504465627567204D6F6E69746F720A00006E
S315020031600A3C3C2053595354454D2052455345542D
S3150200317020262052455354415254203E3E0A000016
S315020031800A3C3C2053595354454D20464153542042
S3150200319052455354415254203E3E0A000A3C3C20BA
S315020031A053595354454D2052455354415254203E8F
S315020031B03E0A0000580000007800000020000000CF
S315020031C030000000444D4C6B000000002145525275
S315020031D04F522120696E69745F496D616C6C6F6331
S315020031E00A000000214552524F522120696E69742D
S315020031F05F6465766963650A0000000021455252E4
S315020032004F522120696E69745F696E697469616CD7
S31502003210697A650A00000000214552524F52212068
S315020032206B65726E656C206F626A65637420696E87
S31502003230697469616C697A650A0000002145525217
S315020032404F52212053797374656D2074696D6572CE
S3150200325020737461727475700A000000214552521F
S315020032604F522120496E697469616C205461736BF7
S315020032702063616E206E6F742073746172740A002B
S31502003280214552524F522120496E697469616C2060
S315020032905461736B2063616E206E6F742063726576
S315020032A061740A000A0A6D6963726F542D4B657266
S315020032B06E656C2056657273696F6E2025782E25B1
S315020032C03032780A0A000000214552524F5221201C
S315020032D0496E6974205461736B2073746172740A47
S315020032E0000000000A3C3C2053595354454D2053DC
S315020032F0485554444F574E203E3E0A007461736B44
S3150200330020320A007461736B20310A0053746172B1
S315020033107420557365722D6D61696E2070726F67C8
S3150200332072616D2E0A000DFF303132333435363775
S315020033303839616263646566303132333435363723
S31502003340383941424344454608000000A5180002A8
S31502003350000000000800000000000000000000005D
S3150200336004000000A11F0002052000020400000064
S31502003370000000000520000202000000000000001C
S315020033800000000001000000000000000000000034
S315020033900000000001000000152C000201000000E0
S311020033A000040000000000000000000015
S315020033AC0000000001030000712C00020A0000005C
S315020033BC00040000000000000000000001030000F1
S315020033CC892C00020A000000000400000000000024
S30D020033DCAD00000285000002AB
S315020033E400000000000000000000000000000000D1
S315020033F400000000000000000000000000000000C1
S3150200340400000000000000000000000000000000B0
S3150200341400000000000000000000000000000000A0
S3090300A110FFFFFFFF46
S3090300A134FFFFFFFF22
S3150300A200FFFFFFFDFFFFFFFFFFFFFFFFFFFFFFFF57
S3150300A210FFFFFFFFFFFFFFFFFFFFFFFFFFFFFFFF45
S3150300A220FFFFFFFFFFFFFFFFFFFFFFFFFFFFFFFF35
S3150300A230FFFFFFFFFFFFFFFFFFFFFFFFFFFFFFFF25
S3150300A240FFFFFFFFFFFFFFFFFFFFFFFFFFFFFFFF15
S3150300A250FFFFFFFFFFFFFFFFFFFFFFFFFFFFFFFF05
S3150300A260FFFFFFFFFFFFFFFFFFFFFFFFFFFFFFFFF5
S3150300A270FFFFFFFFFFFFFFFFFFFFFFFFFFFFFFFFE5
S3150300A28000000000FFFFFFFFFFFFFFFFFFFFFFFFD1
S3150300A290FFFFFFFFFFFFFFFFFFFFFFFFFFFFFFFFC5
S3150300A2A0FFFFFFFFFFFFFFFFFFFFFFFFFFFFFFFFB5
S3150300A2B0FFFFFFFFFFFFFFFFFFFFFFFFFFFFFFFFA5
S3150300A2C0FFFFFFFFFFFFFFFFFFFFFFFFFFFFFFFF95
S705020006C131
